{
  "_format": "hh-sol-artifact-1",
  "contractName": "Auditorium",
  "sourceName": "contracts/Auditorium.sol",
  "abi": [
    {
      "inputs": [
        {
          "internalType": "address[]",
          "name": "approver",
          "type": "address[]"
        },
        {
          "internalType": "address[]",
          "name": "proposer",
          "type": "address[]"
        },
        {
          "internalType": "contract IERC20",
          "name": "_token",
          "type": "address"
        },
        {
          "internalType": "contract ILevelFactory",
          "name": "_levelFactory",
          "type": "address"
        }
      ],
      "stateMutability": "nonpayable",
      "type": "constructor"
    },
    {
      "anonymous": false,
      "inputs": [
        {
          "indexed": true,
          "internalType": "address",
          "name": "sender",
          "type": "address"
        },
        {
          "indexed": false,
          "internalType": "uint256",
          "name": "proposalId",
          "type": "uint256"
        }
      ],
      "name": "Approve",
      "type": "event"
    },
    {
      "anonymous": false,
      "inputs": [
        {
          "indexed": true,
          "internalType": "address",
          "name": "sender",
          "type": "address"
        },
        {
          "indexed": false,
          "internalType": "uint256",
          "name": "proposalId",
          "type": "uint256"
        }
      ],
      "name": "Propose",
      "type": "event"
    },
    {
      "anonymous": false,
      "inputs": [
        {
          "indexed": true,
          "internalType": "address",
          "name": "sender",
          "type": "address"
        },
        {
          "indexed": false,
          "internalType": "uint256",
          "name": "amount",
          "type": "uint256"
        }
      ],
      "name": "Refund",
      "type": "event"
    },
    {
      "anonymous": false,
      "inputs": [
        {
          "indexed": true,
          "internalType": "address[]",
          "name": "inspector",
          "type": "address[]"
        },
        {
          "indexed": false,
          "internalType": "uint256",
          "name": "proposalId",
          "type": "uint256"
        },
        {
          "indexed": false,
          "internalType": "uint256",
          "name": "reward",
          "type": "uint256"
        }
      ],
      "name": "Reward",
      "type": "event"
    },
    {
      "anonymous": false,
      "inputs": [
        {
          "indexed": true,
          "internalType": "bytes32",
          "name": "role",
          "type": "bytes32"
        },
        {
          "indexed": true,
          "internalType": "bytes32",
          "name": "previousAdminRole",
          "type": "bytes32"
        },
        {
          "indexed": true,
          "internalType": "bytes32",
          "name": "newAdminRole",
          "type": "bytes32"
        }
      ],
      "name": "RoleAdminChanged",
      "type": "event"
    },
    {
      "anonymous": false,
      "inputs": [
        {
          "indexed": true,
          "internalType": "bytes32",
          "name": "role",
          "type": "bytes32"
        },
        {
          "indexed": true,
          "internalType": "address",
          "name": "account",
          "type": "address"
        },
        {
          "indexed": true,
          "internalType": "address",
          "name": "sender",
          "type": "address"
        }
      ],
      "name": "RoleGranted",
      "type": "event"
    },
    {
      "anonymous": false,
      "inputs": [
        {
          "indexed": true,
          "internalType": "bytes32",
          "name": "role",
          "type": "bytes32"
        },
        {
          "indexed": true,
          "internalType": "address",
          "name": "account",
          "type": "address"
        },
        {
          "indexed": true,
          "internalType": "address",
          "name": "sender",
          "type": "address"
        }
      ],
      "name": "RoleRevoked",
      "type": "event"
    },
    {
      "inputs": [],
      "name": "APPROVER_ROLE",
      "outputs": [
        {
          "internalType": "bytes32",
          "name": "",
          "type": "bytes32"
        }
      ],
      "stateMutability": "view",
      "type": "function"
    },
    {
      "inputs": [],
      "name": "DEFAULT_ADMIN_ROLE",
      "outputs": [
        {
          "internalType": "bytes32",
          "name": "",
          "type": "bytes32"
        }
      ],
      "stateMutability": "view",
      "type": "function"
    },
    {
      "inputs": [],
      "name": "PROPOSER_ROLE",
      "outputs": [
        {
          "internalType": "bytes32",
          "name": "",
          "type": "bytes32"
        }
      ],
      "stateMutability": "view",
      "type": "function"
    },
    {
      "inputs": [
        {
          "internalType": "uint256",
          "name": "_proposalId",
          "type": "uint256"
        },
        {
          "internalType": "bool",
          "name": "isHighAudit",
          "type": "bool"
        }
      ],
      "name": "acceptTask",
      "outputs": [],
      "stateMutability": "nonpayable",
      "type": "function"
    },
    {
      "inputs": [
        {
          "internalType": "uint256",
          "name": "proposalId",
          "type": "uint256"
        }
      ],
      "name": "approve",
      "outputs": [],
      "stateMutability": "nonpayable",
      "type": "function"
    },
    {
      "inputs": [
        {
          "internalType": "uint256",
          "name": "_proposalId",
          "type": "uint256"
        }
      ],
      "name": "cliamFund",
      "outputs": [],
      "stateMutability": "nonpayable",
      "type": "function"
    },
    {
      "inputs": [],
      "name": "getAllProposal",
      "outputs": [
        {
          "components": [
            {
              "internalType": "address",
              "name": "proposer",
              "type": "address"
            },
            {
              "internalType": "uint256",
              "name": "start",
              "type": "uint256"
            },
            {
              "internalType": "uint256",
              "name": "period",
              "type": "uint256"
            },
            {
              "internalType": "enum Auditorium.Status",
              "name": "state",
              "type": "uint8"
            },
            {
              "internalType": "uint256",
              "name": "bounty",
              "type": "uint256"
            }
          ],
          "internalType": "struct Auditorium.Proposal[]",
          "name": "",
          "type": "tuple[]"
        }
      ],
      "stateMutability": "view",
      "type": "function"
    },
    {
      "inputs": [
        {
          "internalType": "uint256",
          "name": "_proposalId",
          "type": "uint256"
        }
      ],
      "name": "getProposal",
      "outputs": [
        {
          "components": [
            {
              "internalType": "address",
              "name": "proposer",
              "type": "address"
            },
            {
              "internalType": "uint256",
              "name": "start",
              "type": "uint256"
            },
            {
              "internalType": "uint256",
              "name": "period",
              "type": "uint256"
            },
            {
              "internalType": "enum Auditorium.Status",
              "name": "state",
              "type": "uint8"
            },
            {
              "internalType": "uint256",
              "name": "bounty",
              "type": "uint256"
            }
          ],
          "internalType": "struct Auditorium.Proposal",
          "name": "",
          "type": "tuple"
        }
      ],
      "stateMutability": "view",
      "type": "function"
    },
    {
      "inputs": [
        {
          "internalType": "uint256",
          "name": "_proposalId",
          "type": "uint256"
        }
      ],
      "name": "getProposalAuditor",
      "outputs": [
        {
          "components": [
            {
              "internalType": "uint256",
              "name": "highAuditMax",
              "type": "uint256"
            },
            {
              "internalType": "uint256",
              "name": "midAuditMax",
              "type": "uint256"
            },
            {
              "internalType": "address[]",
              "name": "highAuditors",
              "type": "address[]"
            },
            {
              "internalType": "address[]",
              "name": "midAuditors",
              "type": "address[]"
            }
          ],
          "internalType": "struct Auditorium.ProposalAuditor",
          "name": "",
          "type": "tuple"
        }
      ],
      "stateMutability": "view",
      "type": "function"
    },
    {
      "inputs": [
        {
          "internalType": "bytes32",
          "name": "role",
          "type": "bytes32"
        }
      ],
      "name": "getRoleAdmin",
      "outputs": [
        {
          "internalType": "bytes32",
          "name": "",
          "type": "bytes32"
        }
      ],
      "stateMutability": "view",
      "type": "function"
    },
    {
      "inputs": [
        {
          "internalType": "bytes32",
          "name": "role",
          "type": "bytes32"
        },
        {
          "internalType": "address",
          "name": "account",
          "type": "address"
        }
      ],
      "name": "grantRole",
      "outputs": [],
      "stateMutability": "nonpayable",
      "type": "function"
    },
    {
      "inputs": [
        {
          "internalType": "bytes32",
          "name": "role",
          "type": "bytes32"
        },
        {
          "internalType": "address",
          "name": "account",
          "type": "address"
        }
      ],
      "name": "hasRole",
      "outputs": [
        {
          "internalType": "bool",
          "name": "",
          "type": "bool"
        }
      ],
      "stateMutability": "view",
      "type": "function"
    },
    {
      "inputs": [
        {
          "internalType": "uint256",
          "name": "",
          "type": "uint256"
        }
      ],
      "name": "proposals",
      "outputs": [
        {
          "internalType": "address",
          "name": "proposer",
          "type": "address"
        },
        {
          "internalType": "uint256",
          "name": "start",
          "type": "uint256"
        },
        {
          "internalType": "uint256",
          "name": "period",
          "type": "uint256"
        },
        {
          "internalType": "enum Auditorium.Status",
          "name": "state",
          "type": "uint8"
        },
        {
          "internalType": "uint256",
          "name": "bounty",
          "type": "uint256"
        }
      ],
      "stateMutability": "view",
      "type": "function"
    },
    {
      "inputs": [
        {
          "internalType": "uint256",
          "name": "_period",
          "type": "uint256"
        },
        {
          "internalType": "uint256",
          "name": "_amount",
          "type": "uint256"
        },
        {
          "internalType": "uint256",
          "name": "_highAuditMax",
          "type": "uint256"
        },
        {
          "internalType": "uint256",
          "name": "_midAuditMax",
          "type": "uint256"
        }
      ],
      "name": "propose",
      "outputs": [
        {
          "internalType": "uint256",
          "name": "proposalId_",
          "type": "uint256"
        }
      ],
      "stateMutability": "nonpayable",
      "type": "function"
    },
    {
      "inputs": [
        {
          "internalType": "uint256",
          "name": "proposalId",
          "type": "uint256"
        }
      ],
      "name": "refund",
      "outputs": [],
      "stateMutability": "nonpayable",
      "type": "function"
    },
    {
      "inputs": [
        {
          "internalType": "bytes32",
          "name": "role",
          "type": "bytes32"
        },
        {
          "internalType": "address",
          "name": "account",
          "type": "address"
        }
      ],
      "name": "renounceRole",
      "outputs": [],
      "stateMutability": "nonpayable",
      "type": "function"
    },
    {
      "inputs": [
        {
          "internalType": "bytes32",
          "name": "role",
          "type": "bytes32"
        },
        {
          "internalType": "address",
          "name": "account",
          "type": "address"
        }
      ],
      "name": "revokeRole",
      "outputs": [],
      "stateMutability": "nonpayable",
      "type": "function"
    },
    {
      "inputs": [
        {
          "internalType": "uint256",
          "name": "_proposalId",
          "type": "uint256"
        }
      ],
      "name": "setRefundState",
      "outputs": [],
      "stateMutability": "nonpayable",
      "type": "function"
    },
    {
      "inputs": [
        {
          "internalType": "uint256",
          "name": "_timeout",
          "type": "uint256"
        }
      ],
      "name": "setTimeout",
      "outputs": [],
      "stateMutability": "nonpayable",
      "type": "function"
    },
    {
      "inputs": [
        {
          "internalType": "bytes4",
          "name": "interfaceId",
          "type": "bytes4"
        }
      ],
      "name": "supportsInterface",
      "outputs": [
        {
          "internalType": "bool",
          "name": "",
          "type": "bool"
        }
      ],
      "stateMutability": "view",
      "type": "function"
    },
    {
      "inputs": [],
      "name": "timeout",
      "outputs": [
        {
          "internalType": "uint256",
          "name": "",
          "type": "uint256"
        }
      ],
      "stateMutability": "view",
      "type": "function"
    },
    {
      "inputs": [
        {
          "internalType": "uint256",
          "name": "_proposalId",
          "type": "uint256"
        }
      ],
      "name": "unlockReward",
      "outputs": [],
      "stateMutability": "nonpayable",
      "type": "function"
    }
  ],
  "bytecode": "0x608060405262093a806004553480156200001857600080fd5b5060405162002c5138038062002c518339810160408190526200003b91620002cd565b60018055600380546001600160a01b038084166001600160a01b031992831617909255600280549285169290911691909117905560005b8451811015620000e957620000d67f5ff1fb0ce9089603e6e193667ed17164e0360a6148f4a39fc194055588948a31868381518110620000c257634e487b7160e01b600052603260045260246000fd5b60200260200101516200015b60201b60201c565b620000e1816200035e565b905062000072565b5060005b835181101562000150576200013d7fc4338366b9cfc07901c46677a3a32746bd05d5c114e4d0d293c468cff87acde0858381518110620000c257634e487b7160e01b600052603260045260246000fd5b62000148816200035e565b9050620000ed565b5050505050620003b5565b6200016782826200016b565b5050565b6000828152602081815260408083206001600160a01b038516845290915290205460ff1662000167576000828152602081815260408083206001600160a01b03851684529091529020805460ff19166001179055620001c73390565b6001600160a01b0316816001600160a01b0316837f2f8788117e7eff1d82e926ec794901d17c78024a50270940304540a733656f0d60405160405180910390a45050565b805162000218816200039c565b919050565b600082601f8301126200022e578081fd5b815160206001600160401b03808311156200024d576200024d62000386565b8260051b604051601f19603f8301168101818110848211171562000275576200027562000386565b6040528481528381019250868401828801850189101562000294578687fd5b8692505b85831015620002c157620002ac816200020b565b84529284019260019290920191840162000298565b50979650505050505050565b60008060008060808587031215620002e3578384fd5b84516001600160401b0380821115620002fa578586fd5b62000308888389016200021d565b955060208701519150808211156200031e578485fd5b506200032d878288016200021d565b935050604085015162000340816200039c565b606086015190925062000353816200039c565b939692955090935050565b60006000198214156200037f57634e487b7160e01b81526011600452602481fd5b5060010190565b634e487b7160e01b600052604160045260246000fd5b6001600160a01b0381168114620003b257600080fd5b50565b61288c80620003c56000396000f3fe608060405234801561001057600080fd5b50600436106101825760003560e01c80634ba6119d116100d8578063a217fddf1161008c578063c58a34cc11610066578063c58a34cc14610380578063c7f758a814610393578063d547741f146103b357600080fd5b8063a217fddf14610352578063a8a5e31e1461035a578063b759f9541461036d57600080fd5b806370dea79a116100bd57806370dea79a146102eb5780638f61f4f5146102f457806391d148541461031b57600080fd5b80634ba6119d146102c55780636a75fd48146102d857600080fd5b80632c3b4f271161013a5780634245962b116101145780634245962b14610269578063433449831461029057806347045477146102a557600080fd5b80632c3b4f27146102305780632f2ff15d1461024357806336568abe1461025657600080fd5b806310eb7af11161016b57806310eb7af1146101d7578063248a9ca3146101ec578063278ecde11461021d57600080fd5b8063013cf08b1461018757806301ffc9a7146101b4575b600080fd5b61019a610195366004612436565b6103c6565b6040516101ab959493929190612642565b60405180910390f35b6101c76101c2366004612488565b610417565b60405190151581526020016101ab565b6101ea6101e5366004612436565b610480565b005b61020f6101fa366004612436565b60009081526020819052604090206001015490565b6040519081526020016101ab565b6101ea61022b366004612436565b610b58565b61020f61023e3660046124ec565b610da1565b6101ea61025136600461244e565b610fc3565b6101ea61026436600461244e565b610fe8565b61020f7f5ff1fb0ce9089603e6e193667ed17164e0360a6148f4a39fc194055588948a3181565b610298611074565b6040516101ab919061267d565b6102b86102b3366004612436565b611152565b6040516101ab91906126fe565b6101ea6102d3366004612436565b61126b565b6101ea6102e63660046124c8565b611430565b61020f60045481565b61020f7fc4338366b9cfc07901c46677a3a32746bd05d5c114e4d0d293c468cff87acde081565b6101c761032936600461244e565b6000918252602082815260408084206001600160a01b0393909316845291905290205460ff1690565b61020f600081565b6101ea610368366004612436565b6116b1565b6101ea61037b366004612436565b611795565b6101ea61038e366004612436565b6118c2565b6103a66103a1366004612436565b611945565b6040516101ab9190612754565b6101ea6103c136600461244e565b611a33565b600681815481106103d657600080fd5b6000918252602090912060059091020180546001820154600283015460038401546004909401546001600160a01b0390931694509092909160ff9091169085565b60006001600160e01b031982167f7965db0b00000000000000000000000000000000000000000000000000000000148061047a57507f01ffc9a7000000000000000000000000000000000000000000000000000000006001600160e01b03198316145b92915050565b3360009081527fc21e5385eb0f0a5f01809eb1bc7004c565b4b7a3930450ce3f47ca195f3fbfa8602052604090205460ff166105035760405162461bcd60e51b815260206004820152601960248201527f417070726f76657220726f6c652069732072657175697265640000000000000060448201526064015b60405180910390fd5b6006818154811061052457634e487b7160e01b600052603260045260246000fd5b9060005260206000209060050201600201546006828154811061055757634e487b7160e01b600052603260045260246000fd5b9060005260206000209060050201600101546105739190612762565b6006828154811061059457634e487b7160e01b600052603260045260246000fd5b90600052602060002090600502016001015411156105f45760405162461bcd60e51b815260206004820152600b60248201527f4f7574206f662074696d6500000000000000000000000000000000000000000060448201526064016104fa565b60026006828154811061061757634e487b7160e01b600052603260045260246000fd5b600091825260209091206003600590920201015460ff16600481111561064d57634e487b7160e01b600052602160045260246000fd5b1461069a5760405162461bcd60e51b815260206004820152601960248201527f50726f706f73616c206d75737420626520617070726f7665640000000000000060448201526064016104fa565b60006064600683815481106106bf57634e487b7160e01b600052603260045260246000fd5b906000526020600020906005020160040154603c6106dd919061279a565b6106e7919061277a565b6000838152600760209081526040808320600201805482518185028101850190935280835294955093839261075c9291869183018282801561075257602002820191906000526020600020905b81546001600160a01b03168152600190910190602001808311610734575b5050505050611a58565b9092509050600061076d838661277a565b905060005b84548110156108c1578183828151811061079c57634e487b7160e01b600052603260045260246000fd5b60200260200101516107ae919061279a565b600a60008784815481106107d257634e487b7160e01b600052603260045260246000fd5b60009182526020808320909101546001600160a01b0316835282019290925260400181208054909190610806908490612762565b909155505060035485546001600160a01b039091169063a752c07e9087908490811061084257634e487b7160e01b600052603260045260246000fd5b60009182526020909120015460405160e083901b6001600160e01b03191681526001600160a01b03909116600482015260146024820152604401600060405180830381600087803b15801561089657600080fd5b505af11580156108aa573d6000803e3d6000fd5b5050505080806108b990612817565b915050610772565b5060006064600688815481106108e757634e487b7160e01b600052603260045260246000fd5b9060005260206000209060050201600401546028610905919061279a565b61090f919061277a565b6000888152600760209081526040808320600301805482518185028101850190935280835294955093839261098292918691830182828015610752576020028201919060005260206000209081546001600160a01b03168152600190910190602001808311610734575050505050611a58565b90925090506000610993838661277a565b905060005b8454811015610ae757818382815181106109c257634e487b7160e01b600052603260045260246000fd5b60200260200101516109d4919061279a565b600a60008784815481106109f857634e487b7160e01b600052603260045260246000fd5b60009182526020808320909101546001600160a01b0316835282019290925260400181208054909190610a2c908490612762565b90915550506003548a546001600160a01b039091169063a752c07e908c9084908110610a6857634e487b7160e01b600052603260045260246000fd5b60009182526020909120015460405160e083901b6001600160e01b03191681526001600160a01b03909116600482015260146024820152604401600060405180830381600087803b158015610abc57600080fd5b505af1158015610ad0573d6000803e3d6000fd5b505050508080610adf90612817565b915050610998565b50600460068c81548110610b0b57634e487b7160e01b600052603260045260246000fd5b60009182526020909120600360059092020101805460ff19166001836004811115610b4657634e487b7160e01b600052602160045260246000fd5b02179055505050505050505050505050565b600060068281548110610b7b57634e487b7160e01b600052603260045260246000fd5b6000918252602090912060059091020180549091506001600160a01b03163314610c0d5760405162461bcd60e51b815260206004820152602160248201527f63616e207769746864726177206f6e6c7920796f7572206465706f736974696f60448201527f6e0000000000000000000000000000000000000000000000000000000000000060648201526084016104fa565b60038082015460ff166004811115610c3557634e487b7160e01b600052602160045260246000fd5b1415610c835760405162461bcd60e51b815260206004820152601660248201527f796f752068617665206265656e20646566756e6465640000000000000000000060448201526064016104fa565b60048101546000600383015460ff166004811115610cb157634e487b7160e01b600052602160045260246000fd5b1415610cd9576003828101805460ff19166001835b0217905550610cd481611c62565b505050565b4282600201548360010154610cee9190612762565b1115610d07576003828101805460ff1916600183610cc6565b426004548360010154610d1a9190612762565b1115610d33576003828101805460ff1916600183610cc6565b60405162461bcd60e51b815260206004820152602260248201527f636f6e74726163742061726520756e64657220617564697465642070726f636560448201527f737300000000000000000000000000000000000000000000000000000000000060648201526084016104fa565b6000610dad3385611d63565b6040805160a0810182523381526020810187815291810186815260016060830181815260808401899052600680548084018255600091909152845160059091027ff652222313e28459528d920b65115c16c04f3efc82aaedc97be59f3f377c0d3f810180546001600160a01b0390931673ffffffffffffffffffffffffffffffffffffffff1990931692909217825595517ff652222313e28459528d920b65115c16c04f3efc82aaedc97be59f3f377c0d4087015592517ff652222313e28459528d920b65115c16c04f3efc82aaedc97be59f3f377c0d41860155517ff652222313e28459528d920b65115c16c04f3efc82aaedc97be59f3f377c0d42909401805493948594909260ff1990911690836004811115610edc57634e487b7160e01b600052602160045260246000fd5b021790555060809190910151600490910155600654600090610f00906001906127b9565b60408051608081018252878152602080820188815283516000808252818401865284860191825285518181528085018752606086015286815260078452949094208351815590516001820155925180519495509193610f659260028501920190612393565b5060608201518051610f81916003840191602090910190612393565b50506040518281523391507f42681fc159c671d489c99c06f4693d03a705a21df2fbb2b84eedda79e0db4cff9060200160405180910390a29695505050505050565b600082815260208190526040902060010154610fde81611fbd565b610cd48383611fca565b6001600160a01b03811633146110665760405162461bcd60e51b815260206004820152602f60248201527f416363657373436f6e74726f6c3a2063616e206f6e6c792072656e6f756e636560448201527f20726f6c657320666f722073656c66000000000000000000000000000000000060648201526084016104fa565b6110708282612068565b5050565b60606006805480602002602001604051908101604052809291908181526020016000905b828210156111495760008481526020908190206040805160a0810182526005860290920180546001600160a01b031683526001810154938301939093526002830154908201526003820154909190606083019060ff16600481111561110d57634e487b7160e01b600052602160045260246000fd5b600481111561112c57634e487b7160e01b600052602160045260246000fd5b815260200160048201548152505081526020019060010190611098565b50505050905090565b61117d6040518060800160405280600081526020016000815260200160608152602001606081525090565b600082815260076020908152604091829020825160808101845281548152600182015481840152600282018054855181860281018601875281815292959394938601938301828280156111f957602002820191906000526020600020905b81546001600160a01b031681526001909101906020018083116111db575b505050505081526020016003820180548060200260200160405190810160405280929190818152602001828054801561125b57602002820191906000526020600020905b81546001600160a01b0316815260019091019060200180831161123d575b5050505050815250509050919050565b600260015414156112be5760405162461bcd60e51b815260206004820152601f60248201527f5265656e7472616e637947756172643a207265656e7472616e742063616c6c0060448201526064016104fa565b60026001556004600682815481106112e657634e487b7160e01b600052603260045260246000fd5b600091825260209091206003600590920201015460ff16600481111561131c57634e487b7160e01b600052602160045260246000fd5b146113695760405162461bcd60e51b815260206004820152601960248201527f50726f706f73616c206d75737420626520617070726f7665640000000000000060448201526064016104fa565b336000818152600a6020526002546040918290205491517fa9059cbb000000000000000000000000000000000000000000000000000000008152600481019390935260248301919091526001600160a01b03169063a9059cbb90604401602060405180830381600087803b1580156113e057600080fd5b505af11580156113f4573d6000803e3d6000fd5b505050506040513d601f19601f82011682018060405250810190611418919061241a565b5050336000908152600a602052604081205560018055565b60026006838154811061145357634e487b7160e01b600052603260045260246000fd5b600091825260209091206003600590920201015460ff16600481111561148957634e487b7160e01b600052602160045260246000fd5b146114d65760405162461bcd60e51b815260206004820152601760248201527f50726f706f73616c206973206e6f742070656e64696e6700000000000000000060448201526064016104fa565b600082815260086020908152604080832033845290915290205460ff16156115665760405162461bcd60e51b815260206004820152602360248201527f596f75206861766520616c72656164792061636365707465642074686973207460448201527f61736b000000000000000000000000000000000000000000000000000000000060648201526084016104fa565b600082815260076020526040902080546001820154909160028101919060030184801561159f5750825460009061159d90866127b9565b115b156116065760008681526007602052604081208054916115be83612800565b9091555050600086815260076020908152604082206002018054600181018255908352912001805473ffffffffffffffffffffffffffffffffffffffff191633179055611686565b841580156116205750805460009061161e90846127b9565b115b1561168657600086815260076020526040812060010180549161164283612800565b9091555050600086815260076020908152604082206003018054600181018255908352912001805473ffffffffffffffffffffffffffffffffffffffff1916331790555b505050600092835250506008602090815260408083203384529091529020805460ff19166001179055565b3360009081527fc21e5385eb0f0a5f01809eb1bc7004c565b4b7a3930450ce3f47ca195f3fbfa8602052604090205460ff1661172f5760405162461bcd60e51b815260206004820152601960248201527f417070726f76657220726f6c652069732072657175697265640000000000000060448201526064016104fa565b60036006828154811061175257634e487b7160e01b600052603260045260246000fd5b60009182526020909120600360059092020101805460ff1916600183600481111561178d57634e487b7160e01b600052602160045260246000fd5b021790555050565b3360009081527fc21e5385eb0f0a5f01809eb1bc7004c565b4b7a3930450ce3f47ca195f3fbfa8602052604090205460ff166118135760405162461bcd60e51b815260206004820152601960248201527f417070726f76657220726f6c652069732072657175697265640000000000000060448201526064016104fa565b60006006828154811061183657634e487b7160e01b600052603260045260246000fd5b9060005260206000209060050201905042816001018190555060028160030160006101000a81548160ff0219169083600481111561188457634e487b7160e01b600052602160045260246000fd5b021790555060405182815233907f90ec57f18fa7b15c6b8d5e4d1deb90796c74b2ff23d4d0cecad0cb42a96b31289060200160405180910390a25050565b3360009081527fc21e5385eb0f0a5f01809eb1bc7004c565b4b7a3930450ce3f47ca195f3fbfa8602052604090205460ff166119405760405162461bcd60e51b815260206004820152601960248201527f417070726f76657220726f6c652069732072657175697265640000000000000060448201526064016104fa565b600455565b6040805160a0810182526000808252602082018190529181018290526060810182905260808101919091526006828154811061199157634e487b7160e01b600052603260045260246000fd5b60009182526020918290206040805160a081018252600590930290910180546001600160a01b031683526001810154938301939093526002830154908201526003820154909190606083019060ff1660048111156119ff57634e487b7160e01b600052602160045260246000fd5b6004811115611a1e57634e487b7160e01b600052602160045260246000fd5b81526020016004820154815250509050919050565b600082815260208190526040902060010154611a4e81611fbd565b610cd48383612068565b60006060600080845167ffffffffffffffff811115611a8757634e487b7160e01b600052604160045260246000fd5b604051908082528060200260200182016040528015611ab0578160200160208202803683370190505b50905060005b8551811015611c575760035486516000916064916001600160a01b0390911690630d8bbd76908a9086908110611afc57634e487b7160e01b600052603260045260246000fd5b60200260200101516040518263ffffffff1660e01b8152600401611b2f91906001600160a01b0391909116815260200190565b60206040518083038186803b158015611b4757600080fd5b505afa158015611b5b573d6000803e3d6000fd5b505050506040513d601f19601f82011682018060405250810190611b7f91906124b0565b611b89919061277a565b9050600a8110611bd357611b9e600385612762565b93506003838381518110611bc257634e487b7160e01b600052603260045260246000fd5b602002602001018181525050611c46565b60058110611c0a57611be6600285612762565b93506002838381518110611bc257634e487b7160e01b600052603260045260246000fd5b611c15600185612762565b93506001838381518110611c3957634e487b7160e01b600052603260045260246000fd5b6020026020010181815250505b50611c5081612817565b9050611ab6565b509094909350915050565b6002546040516370a0823160e01b815233600482015282916001600160a01b0316906370a082319060240160206040518083038186803b158015611ca557600080fd5b505afa158015611cb9573d6000803e3d6000fd5b505050506040513d601f19601f82011682018060405250810190611cdd91906124b0565b1015611d2b5760405162461bcd60e51b815260206004820152601a60248201527f496e73756666696369656e7420746f6b656e2062616c616e636500000000000060448201526064016104fa565b60405181815233907fbb28353e4598c3b9199101a66e0989549b659a59a54d2c27fbb183f1932c8e6d9060200160405180910390a250565b6002546040516370a0823160e01b81526001600160a01b038481166004830152839216906370a082319060240160206040518083038186803b158015611da857600080fd5b505afa158015611dbc573d6000803e3d6000fd5b505050506040513d601f19601f82011682018060405250810190611de091906124b0565b1015611e2e5760405162461bcd60e51b815260206004820152601a60248201527f496e73756666696369656e7420746f6b656e2062616c616e636500000000000060448201526064016104fa565b6002546040517fdd62ed3e0000000000000000000000000000000000000000000000000000000081526001600160a01b0384811660048301523060248301528392169063dd62ed3e9060440160206040518083038186803b158015611e9257600080fd5b505afa158015611ea6573d6000803e3d6000fd5b505050506040513d601f19601f82011682018060405250810190611eca91906124b0565b1015611f185760405162461bcd60e51b815260206004820152601960248201527f436f6e7472616374206d75737420626520617070726f7665640000000000000060448201526064016104fa565b6002546040517f23b872dd0000000000000000000000000000000000000000000000000000000081526001600160a01b03848116600483015230602483015260448201849052909116906323b872dd90606401602060405180830381600087803b158015611f8557600080fd5b505af1158015611f99573d6000803e3d6000fd5b505050506040513d601f19601f82011682018060405250810190610cd4919061241a565b611fc781336120e7565b50565b6000828152602081815260408083206001600160a01b038516845290915290205460ff16611070576000828152602081815260408083206001600160a01b03851684529091529020805460ff191660011790556120243390565b6001600160a01b0316816001600160a01b0316837f2f8788117e7eff1d82e926ec794901d17c78024a50270940304540a733656f0d60405160405180910390a45050565b6000828152602081815260408083206001600160a01b038516845290915290205460ff1615611070576000828152602081815260408083206001600160a01b0385168085529252808320805460ff1916905551339285917ff6391f5c32d9c69d2a47ea670b442974b53935d1edc7fd64eb21e047a839171b9190a45050565b6000828152602081815260408083206001600160a01b038516845290915290205460ff1661107057612123816001600160a01b03166014612165565b61212e836020612165565b60405160200161213f9291906125c1565b60408051601f198184030181529082905262461bcd60e51b82526104fa916004016126cb565b6060600061217483600261279a565b61217f906002612762565b67ffffffffffffffff8111156121a557634e487b7160e01b600052604160045260246000fd5b6040519080825280601f01601f1916602001820160405280156121cf576020820181803683370190505b5090507f30000000000000000000000000000000000000000000000000000000000000008160008151811061221457634e487b7160e01b600052603260045260246000fd5b60200101906001600160f81b031916908160001a9053507f78000000000000000000000000000000000000000000000000000000000000008160018151811061226d57634e487b7160e01b600052603260045260246000fd5b60200101906001600160f81b031916908160001a905350600061229184600261279a565b61229c906001612762565b90505b600181111561233d577f303132333435363738396162636465660000000000000000000000000000000085600f16601081106122eb57634e487b7160e01b600052603260045260246000fd5b1a60f81b82828151811061230f57634e487b7160e01b600052603260045260246000fd5b60200101906001600160f81b031916908160001a90535060049490941c9361233681612800565b905061229f565b50831561238c5760405162461bcd60e51b815260206004820181905260248201527f537472696e67733a20686578206c656e67746820696e73756666696369656e7460448201526064016104fa565b9392505050565b8280548282559060005260206000209081019282156123f5579160200282015b828111156123f5578251825473ffffffffffffffffffffffffffffffffffffffff19166001600160a01b039091161782556020909201916001909101906123b3565b50612401929150612405565b5090565b5b808211156124015760008155600101612406565b60006020828403121561242b578081fd5b815161238c81612848565b600060208284031215612447578081fd5b5035919050565b60008060408385031215612460578081fd5b8235915060208301356001600160a01b038116811461247d578182fd5b809150509250929050565b600060208284031215612499578081fd5b81356001600160e01b03198116811461238c578182fd5b6000602082840312156124c1578081fd5b5051919050565b600080604083850312156124da578182fd5b82359150602083013561247d81612848565b60008060008060808587031215612501578182fd5b5050823594602084013594506040840135936060013592509050565b6000815180845260208085019450808401835b838110156125555781516001600160a01b031687529582019590820190600101612530565b509495945050505050565b6005811061257e57634e487b7160e01b600052602160045260246000fd5b9052565b6001600160a01b038151168252602081015160208301526040810151604083015260608101516125b56060840182612560565b50608090810151910152565b7f416363657373436f6e74726f6c3a206163636f756e74200000000000000000008152600083516125f98160178501602088016127d0565b7f206973206d697373696e6720726f6c652000000000000000000000000000000060179184019182015283516126368160288401602088016127d0565b01602801949350505050565b6001600160a01b0386168152602081018590526040810184905260a0810161266d6060830185612560565b8260808301529695505050505050565b6020808252825182820181905260009190848201906040850190845b818110156126bf576126ac838551612582565b9284019260a09290920191600101612699565b50909695505050505050565b60208152600082518060208401526126ea8160408501602087016127d0565b601f01601f19169190910160400192915050565b602081528151602082015260208201516040820152600060408301516080606084015261272e60a084018261251d565b90506060840151601f1984830301608085015261274b828261251d565b95945050505050565b60a0810161047a8284612582565b6000821982111561277557612775612832565b500190565b60008261279557634e487b7160e01b81526012600452602481fd5b500490565b60008160001904831182151516156127b4576127b4612832565b500290565b6000828210156127cb576127cb612832565b500390565b60005b838110156127eb5781810151838201526020016127d3565b838111156127fa576000848401525b50505050565b60008161280f5761280f612832565b506000190190565b600060001982141561282b5761282b612832565b5060010190565b634e487b7160e01b600052601160045260246000fd5b8015158114611fc757600080fdfea264697066735822122099a4a6729eaad6bc1e5516ac01d72f36734921e997d5ce4d7d91d44c132ee55e64736f6c63430008040033",
  "linkReferences": {},
  "deployedLinkReferences": {}
}